:100000000C945D000C9485000C9485000C94850084
:100010000C9485000C9485000C9485000C9485004C
:100020000C9485000C9485000C9485000C9485003C
:100030000C9485000C9485000C9485000C9485002C
:100040000C9494050C9485000C9462050C943C056A
:100050000C9485000C9485000C9485000C9485000C
:100060000C9485000C94850000000008000201003B
:100070000003040700000000000000000000000072
:10008000250028002B0000000000240027002A0083
:10009000040404040404040402020202020203032E
:1000A0000303030301020408102040800102040836
:1000B0001020010204081020DE0511241FBECFEF1E
:1000C000D8E0DEBFCDBF11E0A0E0B1E0EAE1F0E1B1
:1000D00002C005900D92A83CB107D9F722E0A8EC28
:1000E000B1E001C01D92A439B207E1F710E0CDE5FF
:1000F000D0E004C02197FE010E940508CC35D1074D
:10010000C9F70E9429060C940B080C94000090E09B
:10011000FC01EC55FF4F249180579F4FFC018491C7
:10012000882399F090E0880F991FFC01EA57FF4F50
:10013000A591B491FC01E458FF4F859194918FB73C
:10014000F894EC91E22BEC938FBF0895AF92BF929D
:10015000CF92DF92EF92FF920F931F93CF93DF9393
:100160006C017B018B01040F151FEB015E01AE18C2
:10017000BF08C017D10759F06991D601ED91FC91E4
:100180000190F081E02DC6010995892B79F7C50111
:10019000DF91CF911F910F91FF90EF90DF90CF9063
:1001A000BF90AF900895FC01538D448D252F30E012
:1001B000842F90E0821B930B541710F0CF96089574
:1001C00001970895FC01918D828D981761F0A28DA1
:1001D000AE0FBF2FB11D5D968C91928D9F5F9F7367
:1001E000928F90E008958FEF9FEF0895FC01918D1D
:1001F000828D981731F0828DE80FF11D858D90E08A
:1002000008958FEF9FEF0895FC01918D228D892F26
:1002100090E0805C9F4F821B91098F73992708950E
:100220008FED91E00E94040121E0892B09F420E088
:10023000822F089580E090E0892B29F00E94100120
:1002400081110C9400000895FC01A48DA80FB92F12
:10025000B11DA35ABF4F2C91848D90E001968F73EE
:100260009927848FA689B7892C93A089B1898C910D
:10027000837080648C93938D848D981306C002885C
:10028000F389E02D80818F7D80830895EF92FF9226
:100290000F931F93CF93DF93EC0181E0888F9B8DA9
:1002A0008C8D98131AC0E889F989808185FF15C063
:1002B0009FB7F894EE89FF896083E889F989808186
:1002C0008370806480839FBF81E090E0DF91CF9155
:1002D0001F910F91FF90EF900895F62E0B8D10E077
:1002E0000F5F1F4F0F731127E02E8C8D8E110CC0E6
:1002F0000FB607FCFACFE889F989808185FFF5CF31
:10030000CE010E942401F1CFEB8DEC0FFD2FF11DEA
:10031000E35AFF4FF0829FB7F8940B8FEA89FB896D
:1003200080818062CFCFCF93DF93EC01888D8823CB
:10033000B9F0AA89BB89E889F9898C9185FD03C048
:10034000808186FD0DC00FB607FCF7CF8C9185FF2D
:10035000F2CF808185FFEDCFCE010E942401E9CF4D
:10036000DF91CF91089590E0FC01E859FF4F24916F
:10037000FC01EC55FF4F3491FC01E057FF4FE49135
:10038000EE23C9F0222339F0233001F1A8F4213003
:1003900019F1223029F1F0E0EE0FFF1FE458FF4F72
:1003A000A591B4918FB7F894EC91611126C0309566
:1003B0003E233C938FBF08952730A9F02830C9F021
:1003C000243049F7809180008F7D03C080918000A8
:1003D0008F7780938000DFCF84B58F7784BDDBCFAC
:1003E00084B58F7DFBCF8091B0008F778093B00074
:1003F000D2CF8091B0008F7DF9CF3E2BDACF089518
:1004000090E080E00895AF92BF92CF92DF92EF929A
:10041000FF920F931F93CF93DF93CDB7DEB7609713
:100420000FB6F894DEBF0FBECDBF80E1E0E0F1E093
:10043000DE01119601900D928A95E1F78FE08AB95D
:100440008FEF8BB970E060E080E001E010E02BB14D
:10045000D801062E01C0AA0F0A94EAF79A2F9095A8
:1004600092239BB9E9B1F0E05F0134E0B594A79421
:100470003A95E1F750E040E0EE24E394F12CEC0EE5
:10048000FD1EE60EF71E9501042E02C03595279538
:100490000A94E2F720FD1BC0CA01880F991F880F3C
:1004A000991F8E0D9F1DFC0180816801042E02C0E2
:1004B000CC0CDD1C0A94E2F729B130E094E03595CC
:1004C00027959A95E1F72C213D21232BA9F34F5F26
:1004D0005F4F44305105B9F69BB1A92BABB96F5FA3
:1004E0007F4F6430710509F0B2CF60960FB6F89473
:1004F000DEBF0FBECDBFDF91CF911F910F91FF9057
:10050000EF90DF90CF90BF90AF9008950E940302CC
:100510008093DE018A3219F481E08093D901089535
:100520008F929F92AF92BF920F931F93CF93DF93BF
:10053000CDB7DEB7A1970FB6F894DEBF0FBECDBF23
:1005400019A2423008F44AE08E010F5D1F4F842E3D
:10055000912CB12CA12CA50194010E94C407E62F77
:10056000B901CA01EA3044F5E05DD801EE938D018E
:10057000232B242B252B79F790E080E0109769F04E
:10058000FD0101900020E9F73197AF014A1B5B0B99
:10059000BD018CE792E00E94A600A1960FB6F894E8
:1005A000DEBF0FBECDBFDF91CF911F910F91BF90E6
:1005B000AF909F908F900895E95CD7CFCF93DF9352
:1005C000EC0160E08E810E94B30161E08E810E94A7
:1005D000B30160E08E810E94B3018BE891E0019746
:1005E000F1F7DF91CF910895CF92DF92EF92FF92D2
:1005F0000F931F93CF93DF936C017C0187E0E80E8C
:10060000F11CD0E0C0E0062F10E0B8010C2E02C0B3
:10061000759567950A94E2F76170F70181917F0102
:100620000E94B3012196C430D10579F7C601DF914C
:10063000CF911F910F91FF90EF90DF90CF900C948E
:10064000DE02CF92DF92EF92FF920F931F93CF9330
:10065000DF93EC01F62E642F8C810E94B3018D8113
:100660008F3F19F060E00E94B3010F2D10E08F85DD
:1006700084FF25C06E0187E0C80ED11CF12CE12C4F
:10068000B8010E2C02C0759567950A94E2F7617067
:10069000F60181916F010E94B301FFEFEF1AFF0A8B
:1006A00088E0E816F10461F7CE01DF91CF911F9148
:1006B0000F91FF90EF90DF90CF900C94DE02B80185
:1006C00084E0759567958A95E1F7CE010E94F40262
:1006D0006F2DCE01DF91CF911F910F91FF90EF9081
:1006E000DF90CF900C94F40240E0682F8CE792E00A
:1006F0000C942103CF93DF93623028F090918B020A
:10070000986090938B0260938F021092900290E415
:100710009093910280939202805C809393028091E7
:1007200080020E948700809181028F3F11F00E9419
:100730008700809182020E948700CCE7D2E09E0170
:100740002C57324080918B0284FD0AC084E090E0F7
:100750002196281739073CF48E810E948700EFCF3D
:1007600088E090E0F5CF8BE39DE00197F1F760E042
:10077000809180020E94B30160E0809182020E9419
:10078000B301809181028F3F19F060E00E94B301B4
:1007900080918B0284FD39C063E08CE792E00E9477
:1007A000F402CBE4D6E4CE010197F1F763E08CE7E5
:1007B00092E00E94F4022197F1F763E08CE792E067
:1007C0000E94F40283E592E00197F1F762E08CE782
:1007D00092E00E94F40280918B0280620E94740376
:1007E00084E080938C028CE00E94740381E00E947C
:1007F00074038BE39FE10197F1F782E080938D0210
:1008000086E0DF91CF910C94740380620E947403A0
:100810008BE496E40197F1F780918B0280620E944D
:10082000740383E592E00197F1F780918B02806277
:100830000E947403D0CFCF93DF93EB0190918F028E
:10084000891710F08FEF890FE82FF0E0E458FD4F83
:10085000848980680E947403FE0101900020E9F7FA
:100860003197AF014C1B5D0BBE018CE792E0DF912D
:10087000CF910C94A60041E00E94210381E090E01A
:1008800008958F929F92AF92BF92CF92DF92EF9294
:10089000FF920F931F93CF93DF93CDB7DEB761978E
:1008A0000FB6F894DEBF0FBECDBFB82E6A017B0134
:1008B00081E1EEE2F1E0DE01119601900D928A9560
:1008C000E1F7AB01960101E010E08AE0882E912C5F
:1008D0009AE0A92E2A3031054105510594F0940182
:1008E000092C000C440B550BC701B6010E94E6070A
:1008F000C401A89E4001A99E900C11240F5F1F4FB8
:10090000E9CFE0918F02E23008F046C0E150F0E01C
:10091000E458FD4F84898B0D80680E947403B801F0
:10092000625F7F4F81E090E08C0F9D1F680F791F01
:10093000FB0101900020E9F73197AF01461B570BEF
:100940008CE792E00E94A6004AE0C701B601F7FEDC
:100950000EC041E06DE28CE792E00E942103662721
:100960007727CB016C197D098E099F094AE00E9407
:10097000900261960FB6F894DEBF0FBECDBFDF9137
:10098000CF911F910F91FF90EF90DF90CF90BF908C
:10099000AF909F908F900895E1E0B9CFCF936FE330
:1009A00071E090E080E00E941B046EE871E081E05D
:1009B00090E00E941B041092DB011092DA01CAE061
:1009C0008091D901811136C00E9403028093DE011B
:1009D00090ED980F9A3008F52091DA012F5F20935F
:1009E000DA01082E000C990BC0972230C9F420912F
:1009F000C8013091C901820F931F9093C901809360
:100A0000C8014091C8015091C901052E000C660B28
:100A1000770B87E090E00E9441040E948602D0CFCD
:100A2000C89F9001C99F300D11243093C9012093B4
:100A3000C801E7CF1092D9012091C8013091C901B6
:100A40008091D5019091D6012817390729F481E0CA
:100A50008093DD01CF9108956FE471E081E090E033
:100A60000E941B042FEF87EA91E6215080409040BE
:100A7000E1F700C00000EECF1F920F920FB60F9269
:100A800011242F933F934F935F936F937F938F9393
:100A90009F93AF93BF93EF93FF938FED91E00E94ED
:100AA0002401FF91EF91BF91AF919F918F917F9121
:100AB0006F915F914F913F912F910F900FBE0F90CB
:100AC0001F9018951F920F920FB60F9211242F931B
:100AD0008F939F93EF93FF93E091EF01F091F001DB
:100AE0008081E091F501F091F60182FD1BC09081BB
:100AF0008091F8018F5F8F732091F901821741F087
:100B0000E091F801F0E0E152FE4F958F8093F801FB
:100B1000FF91EF919F918F912F910F900FBE0F90AA
:100B20001F9018958081F4CF1F920F920FB60F92ED
:100B300011242F933F938F939F93AF93BF938091F3
:100B4000D1019091D201A091D301B091D401309103
:100B5000D00123E0230F2D3758F50196A11DB11DBB
:100B60002093D0018093D1019093D201A093D3011F
:100B7000B093D4018091CC019091CD01A091CE0190
:100B8000B091CF010196A11DB11D8093CC0190932E
:100B9000CD01A093CE01B093CF01BF91AF919F91B2
:100BA0008F913F912F910F900FBE0F901F9018952E
:100BB00026E8230F0296A11DB11DD2CFEFEDF1E083
:100BC0001382128288EE93E0A0E0B0E084839583E4
:100BD000A683B78384E191E09183808385EC90E0E4
:100BE0009587848784EC90E09787868780EC90E0F7
:100BF000918B808B81EC90E0938B828B82EC90E0E8
:100C0000958B848B86EC90E0978B868B118E128E61
:100C1000138E148EECE7F2E01382128286E291E0EA
:100C2000918380838EE084838FEF85838FE086833A
:100C300080E1878381E1808782E1818783E1828708
:100C40001386148615861686178661E080E10C945B
:100C50007A03789484B5826084BD84B5816084BD54
:100C600085B5826085BD85B5816085BD80916E004A
:100C7000816080936E00109281008091810082607B
:100C800080938100809181008160809381008091B8
:100C900080008160809380008091B10084608093A7
:100CA000B1008091B00081608093B00080917A00A3
:100CB000846080937A0080917A00826080937A00C9
:100CC00080917A00816080937A0080917A008068B8
:100CD00080937A001092C100E091EF01F091F00151
:100CE00082E08083E091EB01F091EC011082E091D1
:100CF000ED01F091EE018FEC80831092F701E0910D
:100D0000F301F091F40186E08083E091F101F0912C
:100D1000F201808180618083E091F101F091F20124
:100D2000808188608083E091F101F091F2018081FF
:100D300080688083E091F101F091F20180818F7DE4
:100D400080838FEF84B962E080E10E947A036FE5CF
:100D500071E090E080E00E941B0468E671E081E0B1
:100D600090E00E941B0408E218E090E2F92EC0E037
:100D7000D0E0EE24E3948AE0D82E0E940302809310
:100D8000DE01882309F4EDC0833409F06DC0809141
:100D9000DD01811103C00E94CE04F9CF68E771E044
:100DA00090E080E00E941B0467E871E081E090E041
:100DB0000E941B041092DB011092DA018091D9018C
:100DC000811138C00E9403028093DE0190ED980FDC
:100DD0009A3008F52091DA012F5F2093DA01082E6E
:100DE000000C990BC0972230D9F42091D501309195
:100DF000D601820F931F9093D6018093D501409125
:100E0000D5015091D601052E000C660B770B88E0BA
:100E100090E00E9441040E9486021092DD01CECF34
:100E2000D89E9001D99E300D11243093D601209385
:100E3000D501E5CF1092D90160E971E090E080E042
:100E40000E941B046EE871E081E090E00E941B04A8
:100E50004091D5015091D601052E000C660B770B01
:100E600087E090E00E9441048091DE01813409F026
:100E70005EC08091DD01811103C00E94CE04F9CFD4
:100E80001092DD016FE571E090E080E00E941B04AC
:100E900060EA71E081E090E00E941B0415B90E94B5
:100EA0000302C82E0E9403028093DE0122E4C212D4
:100EB00002C08334E1F10E9403028093DE01833299
:100EC00011F4E092DC018091DC01813041F7F5B84A
:100ED0006FE571E090E080E00E941B046AEA71E037
:100EE00081E090E00E941B048FEF97EA21E6815099
:100EF00090402040E1F700C000002A9A8091DD0177
:100F0000811103C00E94CE04F9CF1092DD0110922E
:100F1000DC0115B96FE571E090E080E00E941B04F0
:100F200060EA71E081E090E00E941B04B8CF8091FC
:100F3000DE018234B1F48091DD01811103C00E9491
:100F4000CE04F9CF60E671E090E080E00E941B04DF
:100F500066EB71E081E090E00E941B0405B91092FD
:100F6000DD0144E050E062EC71E08FED91E00E9421
:100F7000A600209709F401CF0E941001882309F4EC
:100F8000FCCE0E940000F7CEA1E21A2EAA1BBB1BCA
:100F9000FD010DC0AA1FBB1FEE1FFF1FA217B30745
:100FA000E407F50720F0A21BB30BE40BF50B661F5B
:100FB000771F881F991F1A9469F76095709580951F
:100FC00090959B01AC01BD01CF010895052E97FBC3
:100FD0001EF400940E94FD0757FD07D00E94C4072D
:100FE00007FC03D04EF40C94FD07509540953095C6
:100FF00021953F4F4F4F5F4F089590958095709585
:1010000061957F4F8F4F9F4F0895EE0FFF1F059003
:0A101000F491E02D0994F894FFCF4D
:10101A003132334134353642373839432A30234462
:10102A00000000004601A600D30093010401E2007B
:10103A00F600000000003B04A6000002FF01303069
:10104A0030303030303030303030303030300044B2
:10105A00494749544520412053454E4841200053B1
:10106A00454E484120494E56414C494441200020B2
:10107A00414C41524D45200020446566696E6972B3
:10108A002053656E68612000444546494E49522006
:10109A0053454E484120004449474954453A2000A7
:1010AA0053454E484120444546494E494441200053
:1010BA00204154495641444F20002044495350414D
:1010CA005241444F20004445534154495641444FEC
:0810DA0020004C4F4F500000B4
:00000001FF
