:100000000C945D000C9485000C9485000C94850084
:100010000C9485000C9485000C9485000C9485004C
:100020000C9485000C9485000C9485000C9485003C
:100030000C9485000C9485000C9485000C9485002C
:100040000C94DB040C9485000C9485000C948500C2
:100050000C9485000C9485000C9485000C9485000C
:100060000C9485000C94850000000008000201003B
:100070000003040700000000000000000000000072
:10008000250028002B0000000000240027002A0083
:10009000040404040404040402020202020203032E
:1000A0000303030301020408102040800102040836
:1000B0001020010204081020250511241FBECFEFD7
:1000C000D8E0DEBFCDBF21E0A8EBB1E001C01D92BA
:1000D000AB3EB207E1F711E0A0E0B1E0E0EDF2E104
:1000E00002C005900D92A83BB107D9F710E0CDE50D
:1000F000D0E004C02197FE010E946E07CC35D107E5
:10010000C9F70E9444050C9466090C94000090E025
:10011000FC01EC55FF4F249180579F4FFC018491C7
:10012000882399F090E0880F991FFC01EA57FF4F50
:10013000A591B491FC01E458FF4F859194918FB73C
:10014000F894EC91E22BEC938FBF0895AF92BF929D
:10015000CF92DF92EF92FF920F931F93CF93DF9393
:100160006C017B018B01040F151FEB015E01AE18C2
:10017000BF08C017D10759F06991D601ED91FC91E4
:100180000190F081E02DC6010995892B79F7C50111
:10019000DF91CF911F910F91FF90EF90DF90CF9063
:1001A000BF90AF90089590E0FC01E859FF4F249173
:1001B000FC01EC55FF4F3491FC01E057FF4FE491F7
:1001C000EE23C9F0222339F0233001F1A8F42130C5
:1001D00019F1223029F1F0E0EE0FFF1FE458FF4F34
:1001E000A591B4918FB7F894EC91611126C0309528
:1001F0003E233C938FBF08952730A9F02830C9F0E3
:10020000243049F7809180008F7D03C08091800069
:100210008F7780938000DFCF84B58F7784BDDBCF6D
:1002200084B58F7DFBCF8091B0008F778093B00035
:10023000D2CF8091B0008F7DF9CF3E2BDACF0895D9
:1002400090E080E00895AF92BF92CF92DF92EF925C
:10025000FF920F931F93CF93DF93CDB7DEB76097D5
:100260000FB6F894DEBF0FBECDBF80E1E6E0F1E04F
:10027000DE01119601900D928A95E1F78FE08AB91F
:100280008FEF8BB970E060E080E001E010E02BB10F
:10029000D801062E01C0AA0F0A94EAF79A2F90956A
:1002A00092239BB9E9B1F0E05F0134E0B594A794E3
:1002B0003A95E1F750E040E0EE24E394F12CEC0EA7
:1002C000FD1EE60EF71E9501042E02C035952795FA
:1002D0000A94E2F720FD1BC0CA01880F991F880FFE
:1002E000991F8E0D9F1DFC0180816801042E02C0A4
:1002F000CC0CDD1C0A94E2F729B130E094E035958E
:1003000027959A95E1F72C213D21232BA9F34F5FE7
:100310005F4F44305105B9F69BB1A92BABB96F5F64
:100320007F4F6430710509F0B2CF60960FB6F89434
:10033000DEBF0FBECDBFDF91CF911F910F91FF9018
:10034000EF90DF90CF90BF90AF9008950E9423016F
:100350008093C2018A3219F481E08093C301089529
:100360008F929F92AF92BF920F931F93CF93DF9381
:10037000CDB7DEB7A1970FB6F894DEBF0FBECDBFE5
:1003800019A2423008F44AE08E010F5D1F4F842EFF
:10039000912CB12CA12CA50194010E942D07E62FD0
:1003A000B901CA01EA3044F5E05DD801EE938D0150
:1003B000232B242B252B79F790E080E0109769F010
:1003C000FD0101900020E9F73197AF014A1B5B0B5B
:1003D000BD018FEC91E00E94A600A1960FB6F894A3
:1003E000DEBF0FBECDBFDF91CF911F910F91BF90A8
:1003F000AF909F908F900895E95CD7CF009769F0F8
:10040000FC0101900020E9F73197AF01481B590B1F
:10041000BC018FEC91E00C94A60090E080E0089580
:10042000CF93DF93EC0160E08E810E94D30061E006
:100430008E810E94D30060E08E810E94D3008BE801
:1004400091E00197F1F7DF91CF910895CF92DF927C
:10045000EF92FF920F931F93CF93DF936C017C0178
:1004600087E0E80EF11CD0E0C0E0062F10E0B801F4
:100470000C2E02C0759567950A94E2F76170F7013A
:1004800081917F010E94D3002196C430D10579F774
:10049000C601DF91CF911F910F91FF90EF90DF90F8
:1004A000CF900C941002CF92DF92EF92FF920F93B5
:1004B0001F93CF93DF93EC01F62E642F8C810E9463
:1004C000D3008D818F3F19F060E00E94D3000F2D83
:1004D00010E08F8584FF25C06E0187E0C80ED11C17
:1004E000F12CE12CB8010E2C02C0759567950A9489
:1004F000E2F76170F60181916F010E94D300FFEF76
:10050000EF1AFF0A88E0E816F10461F7CE01DF91E7
:10051000CF911F910F91FF90EF90DF90CF900C94AF
:100520001002B80184E0759567958A95E1F7CE01D0
:100530000E9426026F2DCE01DF91CF911F910F9166
:10054000FF90EF90DF90CF900C94260240E0682F50
:100550008FEC91E00C945302CF93DF93623028F03C
:100560009091DE0198609093DE016093E201109219
:10057000E30190E49093E4018093E501805C809333
:10058000E6018091D3010E9487008091D4018F3FC2
:1005900011F00E9487008091D5010E948700CFEC66
:1005A000D1E09E012F5C31408091DE0184FD0AC0C4
:1005B00084E090E02196281739073CF48E810E9450
:1005C0008700EFCF88E090E0F5CF8BE39DE00197C7
:1005D000F1F760E08091D3010E94D30060E0809148
:1005E000D5010E94D3008091D4018F3F19F060E0C3
:1005F0000E94D3008091DE0184FD39C063E08FEC5E
:1006000091E00E942602CBE4D6E4CE010197F1F7F7
:1006100063E08FEC91E00E9426022197F1F763E0FE
:100620008FEC91E00E94260283E592E00197F1F7BA
:1006300062E08FEC91E00E9426028091DE018062F0
:100640000E94A60284E08093DF018CE00E94A60253
:1006500081E00E94A6028BE39FE10197F1F782E01F
:100660008093E00186E0DF91CF910C94A602806236
:100670000E94A6028BE496E40197F1F78091DE01D7
:1006800080620E94A60283E592E00197F1F78091D3
:10069000DE0180620E94A602D0CFCF93DF93FB01E0
:1006A000C081D1819091E201891710F08FEF890FFD
:1006B000E82FF0E0E153FE4F848980680E94A60293
:1006C000CE01DF91CF910C94FE0141E00E945302D4
:1006D00081E090E008958F929F92AF92BF92CF9267
:1006E000DF92EF92FF920F931F93CF93DF93CDB7DB
:1006F000DEB761970FB6F894DEBF0FBECDBFB82E40
:100700006A017B0181E1E2E2F1E0DE0111960190F4
:100710000D928A95E1F7AB01960101E010E08AE0C5
:10072000882E912C9AE0A92E2A30310541055105D9
:1007300094F09401092C000C440B550BC701B60131
:100740000E944F07C401A89E4001A99E900C11244D
:100750000F5F1F4FE9CFE091E201E230D8F5E150A1
:10076000F0E0E153FE4F84898B0D80680E94A60261
:10077000C8010E9621E030E02C0F3D1F820F931F21
:100780000E94FE014AE0C701B601F7FE0EC041E03B
:100790006DE28FEC91E00E94530266277727CB0130
:1007A0006C197D098E099F094AE00E94B00161968B
:1007B0000FB6F894DEBF0FBECDBFDF91CF911F9172
:1007C0000F91FF90EF90DF90CF90BF90AF909F90F0
:1007D0008F900895E1E0C4CFFC0180819181009762
:1007E00011F00C9410080895EF92FF920F931F934D
:1007F000CF93DF93EC017B01198218821B821A824E
:100800001D821C82FB0101900020E9F731978F01C6
:10081000061B170BB8016F5F7F4F90E080E00E94CE
:1008200099080097B9F0998388831B830A832C81E8
:100830003D81232B11F4FC0110821D830C83B70131
:1008400088819981DF91CF911F910F91FF90EF9057
:100850000C945F0988819981009711F00E9410081B
:10086000198218821D821C821B821A82DF91CF910D
:100870001F910F91FF90EF9008951F93CF93DF93F7
:1008800000D000D000D0CDB7DEB763E371E0CE0179
:1008900001960E94F403BE016F5F7F4F90E080E0FD
:1008A0000E944D03CE0101960E94EC0362E871E0C4
:1008B000CE0101960E94F403BE016F5F7F4F81E07D
:1008C00090E00E944D03CE0101960E94EC0310922D
:1008D000C5011092C4011AE08091C301811136C094
:1008E0000E9423018093C20190ED980F9A3008F581
:1008F0002091C4012F5F2093C401082E000C990B96
:10090000C0972230C9F42091BE013091BF01820FFF
:10091000931F9093BF018093BE014091BE015091FF
:10092000BF01052E000C660B770B87E090E00E945C
:100930006B030E94A601D0CF189F9001199F300D24
:1009400011243093BF012093BE01E7CF1092C30161
:100950002091BE013091BF018091BA019091BB01FD
:100960002817390769F481E08093B90126960FB6FC
:10097000F894DEBF0FBECDBFDF91CF911F910895D8
:1009800063E471E0CE0101960E94F403BE016F5F43
:100990007F4F81E090E00E944D03CE0101960E94BE
:1009A000EC032FEF87EA91E6215080409040E1F779
:1009B00000C00000DBCF1F920F920FB60F921124E0
:1009C0002F933F938F939F93AF93BF938091CB01CE
:1009D0009091CC01A091CD01B091CE013091CA018E
:1009E00023E0230F2D3758F50196A11DB11D20934B
:1009F000CA018093CB019093CC01A093CD01B09319
:100A0000CE018091C6019091C701A091C801B0911B
:100A1000C9010196A11DB11D8093C6019093C70124
:100A2000A093C801B093C901BF91AF919F918F91DD
:100A30003F912F910F900FBE0F901F90189526E8B1
:100A4000230F0296A11DB11DD2CFEFECF1E013826E
:100A500012828AE191E0918380838EE084838FEF1C
:100A600085838FE0868380E1878381E1808782E1CF
:100A7000818783E1828713861486158616861786FA
:100A800061E080E10C94AC02CF93DF9300D000D002
:100A900000D0CDB7DEB78FEF84B962E080E10E946D
:100AA000AC0263E571E0CE0101960E94F403BE0141
:100AB0006F5F7F4F90E080E00E944D03CE01019672
:100AC0000E94EC036CE571E0CE0101960E94F403F4
:100AD000BE016F5F7F4F81E090E00E944D03CE0129
:100AE00001960E94EC038AE0F82E18E090E2E92ECD
:100AF000DD24D39408E20E9423018093C20188235D
:100B0000D1F3833409F099C08091B901811103C0F8
:100B10000E943D04F9CF6CE671E0CE0101960E947F
:100B2000F403BE016F5F7F4F90E080E00E944D03B1
:100B3000CE0101960E94EC036BE771E0CE010196B5
:100B40000E94F403BE016F5F7F4F81E090E00E943E
:100B50004D03CE0101960E94EC031092C501109244
:100B6000C4018091C301811138C00E942301809388
:100B7000C20190ED980F9A3008F52091C4012F5FC3
:100B80002093C401082E000C990BC0972230D9F491
:100B90002091BA013091BB01820F931F9093BB014A
:100BA0008093BA014091BA015091BB01052E000C0F
:100BB000660B770B88E090E00E946B030E94A60111
:100BC0001092B901CECFF89E9001F99E300D1124FC
:100BD0003093BB012093BA01E5CF1092C30164E8C2
:100BE00071E0CE0101960E94F403BE016F5F7F4F5A
:100BF00090E080E00E944D03CE0101960E94EC033C
:100C000062E871E0CE0101960E94F403BE016F5FBD
:100C10007F4F81E090E00E944D03CE0101960E943B
:100C2000EC034091BA015091BB01052E000C660BFC
:100C3000770B87E090E00E946B038091C2018134C2
:100C400009F07AC08091B901811103C00E943D046E
:100C5000F9CF1092B90163E571E0CE0101960E94CF
:100C6000F403BE016F5F7F4F90E080E00E944D0370
:100C7000CE0101960E94EC0364E971E0CE01019679
:100C80000E94F403BE016F5F7F4F81E090E00E94FD
:100C90004D03CE0101960E94EC0315B90E94230179
:100CA0008093C201823409F440C00E9423018093E2
:100CB000C201833211F4D092B8018091B801813021
:100CC00069F7E5B863E571E0CE0101960E94F4038F
:100CD000BE016F5F7F4F90E080E00E944D03CE0128
:100CE00001960E94EC036EE971E0CE0101960E942C
:100CF000F403BE016F5F7F4F81E090E00E944D03DF
:100D0000CE0101960E94EC032FEF87EA91E6215075
:100D100080409040E1F700C000002A9A8091B9011C
:100D2000811116C00E943D04F9CF0E9423018093D7
:100D3000C201833409F0B9CF8091C201823409F035
:100D4000DACE8091B90181112BC00E943D04F9CF08
:100D50001092B9011092B80115B963E571E0CE01A6
:100D600001960E94F403BE016F5F7F4F90E080E028
:100D70000E944D03CE0101960E94EC0364E971E0EC
:100D8000CE0101960E94F403BE016F5F7F4F81E0A8
:100D900090E00E944D03CE0101960E94EC037ECFAD
:100DA00063E571E0CE0101960E94F403BE016F5F1E
:100DB0007F4F90E080E00E944D03CE0101960E949B
:100DC000EC036AEA71E0CE0101960E94F403BE01D1
:100DD0006F5F7F4F81E090E00E944D03CE0101964E
:100DE0000E94EC0305B91092B90185CE2F923F9273
:100DF0004F925F926F927F928F929F92AF92BF922B
:100E0000CF92DF92EF92FF920F931F93CF93DF93D6
:100E1000CDB7DEB7CA1BDB0B0FB6F894DEBF0FBE33
:100E2000CDBF09942A88398848885F846E847D8480
:100E30008C849B84AA84B984C884DF80EE80FD8082
:100E40000C811B81AA81B981CE0FD11D0FB6F894F8
:100E5000DEBF0FBECDBFED010895A1E21A2EAA1B81
:100E6000BB1BFD010DC0AA1FBB1FEE1FFF1FA2175A
:100E7000B307E407F50720F0A21BB30BE40BF50B57
:100E8000661F771F881F991F1A9469F760957095E0
:100E9000809590959B01AC01BD01CF010895052E71
:100EA00097FB1EF400940E94660757FD07D00E942E
:100EB0002D0707FC03D04EF40C946607509540951F
:100EC000309521953F4F4F4F5F4F089590958095F6
:100ED000709561957F4F8F4F9F4F0895EE0FFF1FC5
:100EE0000590F491E02D09940F931F93CF93DF9316
:100EF0008230910510F482E090E0E091E901F091F8
:100F0000EA0130E020E0B0E0A0E0309799F421154C
:100F1000310509F44AC0281B390B24303105D8F5B6
:100F20008A819B816115710589F1FB01938382831D
:100F3000FE0111C040815181028113814817590778
:100F4000E0F04817590799F4109761F012960C9346
:100F5000129713961C933296CF01DF91CF911F9178
:100F60000F9108950093E9011093EA01F4CF211540
:100F7000310551F04217530738F0A901DB019A01FE
:100F8000BD01DF01F801C1CFEF01F9CF9093EA0174
:100F90008093E901CDCFFE01E20FF31F819391937E
:100FA0002250310939832883D7CF2091E70130912E
:100FB000E801232B41F42091020130910301309389
:100FC000E8012093E70120910001309101012115F2
:100FD000310541F42DB73EB7409104015091050110
:100FE000241B350BE091E701F091E801E217F307CC
:100FF000A0F42E1B3F0B2817390778F0AC014E5F89
:101000005F4F2417350748F04E0F5F1F5093E801DC
:101010004093E701819391939FCFF0E0E0E09CCF74
:10102000CF93DF930097E9F0FC013297138212828D
:10103000A091E901B091EA01ED0130E020E01097C4
:10104000A1F420813181820F931F2091E70130911B
:10105000E8012817390709F061C0F093E801E0932F
:10106000E701DF91CF910895EA01CE17DF07E8F598
:101070004A815B819E0141155105B1F7E901FB836E
:10108000EA8349915991C40FD51FEC17FD0761F40C
:10109000808191810296840F951FE901998388834D
:1010A000828193819B838A83F0E0E0E012968D91A8
:1010B0009C9113970097B9F52D913C911197CD0113
:1010C0000296820F931F2091E7013091E8012817C3
:1010D000390739F6309751F51092EA011092E9017B
:1010E000B093E801A093E701BCCFD383C2834081D2
:1010F0005181840F951FC817D90761F44E5F5F4F68
:1011000088819981480F591F518340838A819B812F
:10111000938382832115310509F0B0CFF093EA0162
:10112000E093E9019ECFFD01DC01C0CF1382128262
:10113000D7CFB0E0A0E0EFE9F8E00C94F8068C011E
:10114000009751F4CB010E9474078C01C801CDB700
:10115000DEB7E0E10C941407FC01E60FF71F9C01D9
:1011600022503109E217F30708F49DC0D901CD914F
:10117000DC911197C617D70798F0C530D10530F329
:10118000CE0104978617970708F3C61BD70B229743
:10119000C193D1936D937C93CF010E941008D6CF59
:1011A0005B01AC1ABD0A4C018C0E9D1EA091E90199
:1011B000B091EA01512C412CF12CE12C109731F522
:1011C0008091E7019091E8018815990509F05CC0CC
:1011D0004616570608F058C0809100019091010111
:1011E000009741F48DB79EB74091040150910501DD
:1011F000841B950BE817F90708F055C0F093E80138
:10120000E093E701F90171836083A0CF8D919C91F8
:10121000119712966C90129713967C901397A815BD
:10122000B90559F56C0142E0C40ED11CCA14DB04A7
:1012300020F1AC014A195B09DA011296159780F08A
:101240006282738251834083D9016D937C93E11450
:10125000F10471F0D7011396FC93EE93129776CFB9
:1012600022968C0F9D1FF90191838083F301EFCFAC
:10127000F093EA01E093E90169CF4816590608F4B2
:101280002C017D01D3019ACFCB010E9474077C0110
:10129000009749F0AE01B8010E945609C8010E94AA
:1012A0001008870153CF10E000E050CFFB01DC01B4
:1012B00002C001900D9241505040D8F70895FB01B3
:1012C000DC0101900D920020E1F70895F894FFCF22
:1012D0000000EB018000313233413435364237387B
:1012E00039432A302344000000006503A600200192
:1012F0001F0130303030303030303030303030302E
:101300003030002044494749544520412053454E40
:101310004841002053454E484120494E56414C49D2
:1013200044410020414C41524D4520002044656617
:10133000696E69722053656E6861200020444546DD
:10134000494E49522053454E48410044494749546B
:10135000453A20002053454E484120444546494ED9
:1013600049444100204154495641444F2000204403
:10137000495350415241444F200020444553415469
:08138000495641444F200000D2
:00000001FF
