:020000040000FA
:100000000C9465000C948D000C948D000C948D0064
:100010000C948D000C948D000C948D000C948D002C
:100020000C948D000C948D000C948D000C948D001C
:100030000C948D000C948D000C948D000C948D000C
:100040000C9430060C948D000C94FE050C94D8058D
:100050000C948D000C948D000C948D000C948D00EC
:100060000C948D000C948D0000000008000201002B
:100070000003040700000000000000002D20535280
:10008000414D206C6566743A202800000000002570
:100090000028002B0000000000240027002A000494
:1000A000040404040404040202020202020303031F
:1000B0000303030102040810204080010204081019
:1000C00020010204081020007A0611241FBECFEF81
:1000D000D8E0DEBFCDBF11E0A0E0B1E0E0ECF2E19E
:1000E00002C005900D92AE3DB107D9F722E0AEED0A
:1000F000B1E001C01D92AE3AB207E1F710E0C5E6EB
:10010000D0E004C02197FE010E945809C436D107EF
:10011000C9F70E94C5060C945E090C94000090E09B
:10012000FC01ED54FF4F249181569F4FFC018491B7
:10013000882399F090E0880F991FFC01EB56FF4F40
:10014000A591B491FC01E557FF4F859194918FB72C
:10015000F894EC91E22BEC938FBF0895AF92BF928D
:10016000CF92DF92EF92FF920F931F93CF93DF9383
:100170006C017B018B01040F151FEB015E01AE18B2
:10018000BF08C017D10759F06991D601ED91FC91D4
:100190000190F081E02DC6010995892B79F7C50101
:1001A000DF91CF911F910F91FF90EF90DF90CF9053
:1001B000BF90AF900895FC01538D448D252F30E002
:1001C000842F90E0821B930B541710F0CF96089564
:1001D00001970895FC01918D828D981761F0A28D91
:1001E000AE0FBF2FB11D5D968C91928D9F5F9F7357
:1001F000928F90E008958FEF9FEF0895FC01918D0D
:10020000828D981731F0828DE80FF11D858D90E079
:1002100008958FEF9FEF0895FC01918D228D892F16
:1002200090E0805C9F4F821B91098F7399270895FE
:1002300085EF91E00E940C0121E0892B09F420E078
:10024000822F089580E090E0892B29F00E94180108
:1002500081110C9400000895FC01A48DA80FB92F02
:10026000B11DA35ABF4F2C91848D90E001968F73DE
:100270009927848FA689B7892C93A089B1898C91FD
:10028000837080648C93938D848D981306C002884C
:10029000F389E02D80818F7D80830895EF92FF9216
:1002A0000F931F93CF93DF93EC0181E0888F9B8D99
:1002B0008C8D98131AC0E889F989808185FF15C053
:1002C0009FB7F894EE89FF896083E889F989808176
:1002D0008370806480839FBF81E090E0DF91CF9145
:1002E0001F910F91FF90EF900895F62E0B8D10E067
:1002F0000F5F1F4F0F731127E02E8C8D8E110CC0D6
:100300000FB607FCFACFE889F989808185FFF5CF20
:10031000CE010E942C01F1CFEB8DEC0FFD2FF11DD2
:10032000E35AFF4FF0829FB7F8940B8FEA89FB895D
:1003300080818062CFCFCF93DF93EC01888D8823BB
:10034000B9F0AA89BB89E889F9898C9185FD03C038
:10035000808186FD0DC00FB607FCF7CF8C9185FF1D
:10036000F2CF808185FFEDCFCE010E942C01E9CF35
:10037000DF91CF91089590E0FC01E859FF4F24915F
:10038000FC01ED54FF4F3491FC01E156FF4FE49125
:10039000EE23C9F0222339F0233001F1A8F42130F3
:1003A00019F1223029F1F0E0EE0FFF1FE557FF4F62
:1003B000A591B4918FB7F894EC91611126C0309556
:1003C0003E233C938FBF08952730A9F02830C9F011
:1003D000243049F7809180008F7D03C08091800098
:1003E0008F7780938000DFCF84B58F7784BDDBCF9C
:1003F00084B58F7DFBCF8091B0008F778093B00064
:10040000D2CF8091B0008F7DF9CF3E2BDACF3FB7AE
:10041000F8948091E7019091E801A091E901B091F1
:10042000EA0126B5A89B05C02F3F19F00196A11D32
:10043000B11D3FBFBA2FA92F982F8827BC01CD012E
:10044000620F711D811D911D42E0660F771F881F8D
:10045000991F4A95D1F708958F929F92AF92BF92BC
:10046000CF92DF92EF92FF920E9407024B015C0154
:1004700088E8C82E83E1D82EE12CF12C0E940702D7
:10048000681979098A099B09683E734081059105BD
:10049000A8F321E0C21AD108E108F10888EE880E1D
:1004A00083E0981EA11CB11CC114D104E104F10425
:1004B00029F7FF90EF90DF90CF90BF90AF909F9083
:1004C0008F900895089590E080E00895AF92BF92D4
:1004D000CF92DF92EF92FF920F931F93CF93DF9310
:1004E000CDB7DEB760970FB6F894DEBF0FBECDBFB5
:1004F00080E1E0E0F1E0DE01119601900D928A9535
:10050000E1F78FE08AB98FEF8BB970E060E080E0AF
:1005100001E010E02BB1D801062E01C0AA0F0A9409
:10052000EAF79A2F909592239BB9E9B1F0E05F0129
:1005300034E0B594A7943A95E1F750E040E0EE241A
:10054000E394F12CEC0EFD1EE60EF71E9501042E31
:1005500002C0359527950A94E2F720FD1BC0CA0119
:10056000880F991F880F991F8E0D9F1DFC01808198
:100570006801042E02C0CC0CDD1C0A94E2F729B1FC
:1005800030E094E0359527959A95E1F72C213D21AF
:10059000232BA9F34F5F5F4F44305105B9F69BB150
:1005A000A92BABB96F5F7F4F6430710509F0B2CFF3
:1005B00060960FB6F894DEBF0FBECDBFDF91CF912E
:1005C0001F910F91FF90EF90DF90CF90BF90AF9071
:1005D00008950E9466028093F4018A3219F481E042
:1005E0008093EF010895CF93DF93EC0160E08E815B
:1005F0000E94BB0161E08E810E94BB0160E08E81A0
:100600000E94BB018BE891E00197F1F7DF91CF9158
:100610000895CF92DF92EF92FF920F931F93CF93A3
:10062000DF936C017C0187E0E80EF11CD0E0C0E0B4
:10063000062F10E0B8010C2E02C0759567950A943C
:10064000E2F76170F70181917F010E94BB01219661
:10065000C430D10579F7C601DF91CF911F910F9179
:10066000FF90EF90DF90CF900C94F302CF92DF9247
:10067000EF92FF920F931F93CF93DF93EC01F62E2F
:10068000642F8C810E94BB018D818F3F19F060E047
:100690000E94BB010F2D10E08F8584FF25C06E01E5
:1006A00087E0C80ED11CF12CE12CB8010E2C02C041
:1006B000759567950A94E2F76170F60181916F0173
:1006C0000E94BB01FFEFEF1AFF0A88E0E816F10471
:1006D00061F7CE01DF91CF911F910F91FF90EF90C5
:1006E000DF90CF900C94F302B80184E07595679584
:1006F0008A95E1F7CE010E9409036F2DCE01DF91AB
:10070000CF911F910F91FF90EF90DF90CF900C94BD
:10071000090340E0682F82E992E00C943603CF93FE
:10072000DF93623028F09091A10298609093A1022B
:100730006093A5021092A60290E49093A702809382
:10074000A802805C8093A902809196020E948F008B
:10075000809197028F3F11F00E948F008091980244
:100760000E948F00C2E9D2E09E012259324080915E
:10077000A10284FD0AC084E090E021962817390781
:100780003CF48E810E948F00EFCF88E090E0F5CF9F
:100790008BE39DE00197F1F760E0809196020E9463
:1007A000BB0160E0809198020E94BB01809197029A
:1007B0008F3F19F060E00E94BB018091A10284FD8F
:1007C00039C063E082E992E00E940903CBE4D6E4F9
:1007D000CE010197F1F763E082E992E00E940903FC
:1007E0002197F1F763E082E992E00E94090383E533
:1007F00092E00197F1F762E082E992E00E9409033A
:100800008091A10280620E94890384E08093A20209
:100810008CE00E94890381E00E9489038BE39FE1C1
:100820000197F1F782E08093A30286E0DF91CF91F8
:100830000C94890380620E9489038BE496E40197FB
:10084000F1F78091A10280620E94890383E592E022
:100850000197F1F78091A10280620E948903D0CFB5
:1008600041E00E94360381E090E008950F931F93CA
:10087000CF93DF938C01EB010E9401098883C801AB
:1008800001960E9401098983CE01DF91CF911F91CA
:100890000F910895FB0101900020E9F73197AF0116
:1008A000461B570BDC01ED91FC910280F381E02D9A
:1008B00009944F925F926F927F92AF92BF92CF92C4
:1008C000DF92EF92FF920F931F93CF93DF93CDB7F9
:1008D000DEB7A1970FB6F894DEBF0FBECDBF5C01A7
:1008E0006A017B01F7FE47C0DC01ED91FC910190AC
:1008F000F081E02D6DE209958C0122273327A901B3
:100900002C193D094E095F0919A2FE01B1967F011C
:100910009AE0492E512C612C712CCA01B901A30116
:1009200092010E941709605DD7016E937D01211528
:1009300031054105510589F790E080E0109721F0DD
:10094000BD01C5010E944A04800F911FA1960FB6F8
:10095000F894DEBF0FBECDBFDF91CF911F910F91F5
:10096000FF90EF90DF90CF90BF90AF907F906F900F
:100970005F904F900895AB01960119A28E010F5D13
:100980001F4F8AE0C82ED12CE12CF12CCA01B901ED
:10099000A70196010E941709605DF80162938F011B
:1009A000211531054105510589F790E080E0309728
:1009B00069F2BF01C5010E944A04C8CF8F929F927D
:1009C000AF92BF92CF92DF92EF92FF920F931F935D
:1009D000CF93DF93CDB7DEB761970FB6F894DEBF44
:1009E0000FBECDBFB82E6A017B0181E1EEE2F1E0DE
:1009F000DE01119601900D928A95E1F79A01AB0103
:100A000001E010E08AE0882E912C9AE0A92E2A308D
:100A100031054105510594F09401092C000C440B5B
:100A2000550BB601C7010E943909C401A89E4001B7
:100A3000A99E900C11240F5F1F4FE9CFE091A502F2
:100A4000E23070F5E150F0E0EE56FD4F84898B0DF9
:100A500080680E948903025F1F4F61E070E06C0FA5
:100A60007D1F600F711F82E992E00E944A04A60177
:100A7000B70182E992E00E94590461960FB6F8949A
:100A8000DEBF0FBECDBFDF91CF911F910F91FF90C1
:100A9000EF90DF90CF90BF90AF909F908F90089590
:100AA000E1E0D1CFCF93DF93EB019091A5028917BD
:100AB00010F08FEF890FE82FF0E0EE56FD4F84899C
:100AC00080680E948903BE0182E992E0DF91CF91A4
:100AD0000C944A04CF936FE371E090E080E00E94B1
:100AE00052056CE871E081E090E00E94520510929E
:100AF000F1011092F001CAE08091EF01811136C03E
:100B00000E9466028093F40190ED980F9A3008F5E8
:100B10002091F0012F5F2093F001082E000C990B1B
:100B2000C0972230C9F42091DE013091DF01820F9D
:100B3000931F9093DF018093DE014091DE0150917D
:100B4000DF01052E000C660B770B87E090E00E941A
:100B5000DE040E94E902D0CFC89F9001C99F300DEA
:100B600011243093DF012093DE01E7CF1092EF01D3
:100B70002091DE013091DF018091EB019091EC0139
:100B80002817390729F481E08093F301CF91089564
:100B90006FE471E081E090E00E9452052FEF87EA58
:100BA00091E6215080409040E1F700C00000EECF78
:100BB0001F920F920FB60F9211242F933F934F93D2
:100BC0005F936F937F938F939F93AF93BF93EF93B5
:100BD000FF9385EF91E00E942C01FF91EF91BF916F
:100BE000AF919F918F917F916F915F914F913F91C5
:100BF0002F910F900FBE0F901F9018951F920F927C
:100C00000FB60F9211242F938F939F93EF93FF931F
:100C1000E0910502F09106028081E0910B02F091D3
:100C20000C0282FD1BC0908180910E028F5F8F733A
:100C300020910F02821741F0E0910E02F0E0EB509C
:100C4000FE4F958F80930E02FF91EF919F918F91B0
:100C50002F910F900FBE0F901F9018958081F4CFA9
:100C60001F920F920FB60F9211242F933F938F93E1
:100C70009F93AF93BF938091E3019091E401A09182
:100C8000E501B091E6013091E20123E0230F2D3719
:100C900058F50196A11DB11D2093E2018093E30157
:100CA0009093E401A093E501B093E6018091E70100
:100CB0009091E801A091E901B091EA010196A11D8E
:100CC000B11D8093E7019093E801A093E901B093EF
:100CD000EA01BF91AF919F918F913F912F910F901A
:100CE0000FBE0F901F90189526E8230F0296A11DA6
:100CF000B11DD2CFE5EFF1E01382128288EE93E0CE
:100D0000A0E0B0E084839583A683B78384E191E07B
:100D10009183808385EC90E09587848784EC90E0D4
:100D20009787868780EC90E0918B808B81EC90E0B8
:100D3000938B828B82EC90E0958B848B86EC90E099
:100D4000978B868B118E128E138E148EE2E9F2E051
:100D50001382128286E291E0918380838EE0848305
:100D60008FEF85838FE0868380E1878381E18087B1
:100D700082E1818783E18287138614861586168631
:100D8000178661E080E10C948F03CF93DF9300D04E
:100D9000CDB7DEB7789484B5826084BD84B58160B8
:100DA00084BD85B5826085BD85B5816085BD809136
:100DB0006E00816080936E001092810080918100AE
:100DC00082608093810080918100816080938100A6
:100DD000809180008160809380008091B100846068
:100DE0008093B1008091B00081608093B0008091C9
:100DF0007A00846080937A0080917A008260809388
:100E00007A0080917A00816080937A0080917A00E4
:100E1000806880937A001092C100E0910502F09101
:100E2000060282E08083E0910102F09102021082CA
:100E3000E0910302F09104028FEC808310920D0286
:100E4000E0910902F0910A0286E08083E0910702B6
:100E5000F0910802808180618083E0910702F09127
:100E60000802808188608083E0910702F091080287
:100E7000808180688083E0910702F0910802808180
:100E80008F7D80838FEF84B962E080E10E948F03C1
:100E90006FE571E090E080E00E94520568E671E045
:100EA00081E090E00E9452056BEE71E090E080E0FE
:100EB0000E9436046DEE71E084E090E00E943604FA
:100EC00068E771E085EF91E00E944A044091EB01F0
:100ED0005091EC01052E000C660B770B85EF91E02D
:100EE0000E9459044091ED015091EE01052E000C35
:100EF000660B770B85EF91E00E9459046EE871E074
:100F000085EF91E00E944A040E942C024091EB017F
:100F10005091EC01052E000C660B770B85EF91E0EC
:100F20000E9459044091ED015091EE01052E000CF4
:100F3000660B770B85EF91E00E9459046EE871E033
:100F400085EF91E00E944A0438E0B32E40E2A42EDF
:100F50008E010F5F1F4F50E0E52E50E0F52E9924D3
:100F6000939498E2892E2AE0722E0E946602809362
:100F7000F401882309F407C1833409F087C0809104
:100F8000F301811103C00E946A05F9CF61E971E0A4
:100F900090E080E00E94520560EA71E081E090E01C
:100FA0000E9452051092F1011092F0018091EF0120
:100FB000811138C00E9466028093F40190ED980F71
:100FC0009A3008F52091F0012F5F2093F001082E50
:100FD000000C990BC0972230D9F42091EB0130918D
:100FE000EC01820F931F9093EC018093EB014091F1
:100FF000EB015091EC01052E000C660B770B88E09D
:1010000090E00E94DE040E94E9021092F301CECF2C
:10101000789E9001799E300D11243093EC0120933D
:10102000EB01E5CF1092EF0169EA71E090E080E01A
:101030000E9452056CE871E081E090E00E94520548
:101040004091EB015091EC01052E000C660B770BE3
:1010500087E090E00E94DE04D090ED01C090EB01AB
:1010600090E080E00E940109C81629F06C2D90E004
:1010700080E00E94090984E090E00E940109D816EE
:1010800029F06D2D84E090E00E9409098091F4011F
:10109000813409F05EC08091F301811103C00E9488
:1010A0006A05F9CF1092F3016FE571E090E080E0FE
:1010B0000E94520569EB71E081E090E00E945205C8
:1010C000B5B80E946602D82E0E9466028093F40191
:1010D00022E4D21202C08334E1F10E9466028093BE
:1010E000F401833211F49092F2018091F201813087
:1010F00041F7A5B86FE571E090E080E00E945205ED
:1011000063EC71E081E090E00E9452058FEF97EA76
:10111000E1E681509040E040E1F700C000002A9AEB
:101120008091F301811103C00E946A05F9CF1092EA
:10113000F3011092F201B5B86FE571E090E080E044
:101140000E94520569EB71E081E090E00E94520537
:10115000B8CF8091F4018234B1F48091F301811110
:1011600003C00E946A05F9CF60E671E090E080E07C
:101170000E9452056FEC71E081E090E00E94520500
:1011800085B81092F3018CE7C82E80E0D82EF601C6
:101190006491662349F085EF91E00E944E01FFEFD4
:1011A000CF1ADF0A892B99F78091AA029091AB029E
:1011B000009711F48EEA92E0A801481B590B052E06
:1011C000000C660B770B85EF91E00E9459046BEDE4
:1011D00071E085EF91E00E944A046EE871E085EFCE
:1011E00091E00E944A040E942C02E114F10409F4E7
:1011F000BCCE0E941801882309F4B3CE0E940000DF
:10120000B0CEF999FECF92BD81BDF89A992780B5ED
:101210000895262FF999FECF1FBA92BD81BD20BD3A
:101220000FB6F894FA9AF99A0FBE01960895A1E2C2
:101230001A2EAA1BBB1BFD010DC0AA1FBB1FEE1F50
:10124000FF1FA217B307E407F50720F0A21BB30B9B
:10125000E40BF50B661F771F881F991F1A9469F717
:1012600060957095809590959B01AC01BD01CF0173
:101270000895052E97FB1EF400940E94500957FD17
:1012800007D00E94170907FC03D04EF40C945009B4
:1012900050954095309521953F4F4F4F5F4F0895A2
:1012A00090958095709561957F4F8F4F9F4F0895D2
:1012B000EE0FFF1F0590F491E02D0994F894FFCFF5
:1012C0003132334134353642373839432A302344BA
:1012D000000000004E01AE00DB009B010C01EA00A3
:1012E000FE00000000003004AE00630262023030F5
:1012F000303030303030303030303030303000440A
:10130000494749544520412053454E484120005308
:10131000454E484120494E56414C49444120002009
:10132000414C41524D45200020446566696E69720A
:101330002053656E686120004F2076616C6F7220CB
:1013400064612073656E68612065203A20000D0A93
:1013500000444546494E49522053454E48412000DD
:101360004449474954453A200053454E484120449A
:101370004546494E49444120002041544956414484
:101380004F20002044495350415241444F200044D3
:0E13900045534154495641444F200029000066
:107E0000112484B714BE81FFF0D085E080938100F7
:107E100082E08093C00088E18093C10086E0809377
:107E2000C20080E18093C4008EE0C9D0259A86E02C
:107E300020E33CEF91E0309385002093840096BBD3
:107E4000B09BFECF1D9AA8958150A9F7CC24DD24C4
:107E500088248394B5E0AB2EA1E19A2EF3E0BF2EE7
:107E6000A2D0813461F49FD0082FAFD0023811F036
:107E7000013811F484E001C083E08DD089C08234E0
:107E800011F484E103C0853419F485E0A6D080C0E4
:107E9000853579F488D0E82EFF2485D0082F10E0AE
:107EA000102F00270E291F29000F111F8ED06801E7
:107EB0006FC0863521F484E090D080E0DECF843638
:107EC00009F040C070D06FD0082F6DD080E0C81688
:107ED00080E7D80618F4F601B7BEE895C0E0D1E017
:107EE00062D089930C17E1F7F0E0CF16F0E7DF06D8
:107EF00018F0F601B7BEE89568D007B600FCFDCFD4
:107F0000A601A0E0B1E02C9130E011968C91119780
:107F100090E0982F8827822B932B1296FA010C0160
:107F200087BEE89511244E5F5F4FF1E0A038BF0790
:107F300051F7F601A7BEE89507B600FCFDCF97BE46
:107F4000E89526C08437B1F42ED02DD0F82E2BD052
:107F50003CD0F601EF2C8F010F5F1F4F84911BD097
:107F6000EA94F801C1F70894C11CD11CFA94CF0C13
:107F7000D11C0EC0853739F428D08EE10CD085E9AC
:107F80000AD08FE07ACF813511F488E018D01DD067
:107F900080E101D065CF982F8091C00085FFFCCF94
:107FA0009093C60008958091C00087FFFCCF809118
:107FB000C00084FD01C0A8958091C6000895E0E648
:107FC000F0E098E1908380830895EDDF803219F02E
:107FD00088E0F5DFFFCF84E1DECF1F93182FE3DFCA
:107FE0001150E9F7F2DF1F91089580E0E8DFEE27F6
:047FF000FF270994CA
:027FFE00040479
:00000001FF
