:020000040000FA
:100000000C9464000C948C000C948C000C948C0068
:100010000C948C000C948C000C948C000C948C0030
:100020000C948C000C948C000C948C000C948C0020
:100030000C948C000C948C000C948C000C948C0010
:100040000C940F060C948C000C94DD050C94B705F1
:100050000C948C000C948C000C948C000C948C00F0
:100060000C948C000C948C0000000008000201002D
:100070000003040700000000000000002D20535280
:10008000414D206C6566743A200000000000250098
:1000900028002B0000000000240027002A00040490
:1000A0000404040404040202020202020303030320
:1000B00003030102040810204080010204081020FC
:1000C000010204081020590611241FBECFEFD8E00A
:1000D000DEBFCDBF11E0A0E0B1E0ECE1F2E102C093
:1000E00005900D92AC3DB107D9F722E0ACEDB1E03F
:1000F00001C01D92AC3AB207E1F710E0C4E6D0E0CF
:1001000004C02197FE010E940609C336D107C9F732
:100110000E94A4060C940C090C94000090E0FC01D1
:10012000EE54FF4F249182569F4FFC018491882307
:1001300099F090E0880F991FFC01EC56FF4FA591B4
:10014000B491FC01E657FF4F859194918FB7F894D5
:10015000EC91E22BEC938FBF0895AF92BF92CF92B8
:10016000DF92EF92FF920F931F93CF93DF936C0177
:100170007B018B01040F151FEB015E01AE18BF0858
:10018000C017D10759F06991D601ED91FC9101900A
:10019000F081E02DC6010995892B79F7C501DF9122
:1001A000CF911F910F91FF90EF90DF90CF90BF9074
:1001B000AF900895FC01538D448D252F30E0842F9E
:1001C00090E0821B930B541710F0CF96089501977F
:1001D0000895FC01918D828D981761F0A28DAE0F6C
:1001E000BF2FB11D5D968C91928D9F5F9F73928FF3
:1001F00090E008958FEF9FEF0895FC01918D828D1F
:10020000981731F0828DE80FF11D858D90E00895EB
:100210008FEF9FEF0895FC01918D228D892F90E043
:10022000805C9F4F821B91098F739927089583EFFC
:1002300091E00E940B0121E0892B09F420E0822F3C
:10024000089580E090E0892B29F00E941701811128
:100250000C9400000895FC01A48DA80FB92FB11DC6
:10026000A35ABF4F2C91848D90E001968F739927EC
:10027000848FA689B7892C93A089B1898C918370CA
:1002800080648C93938D848D981306C00288F389C3
:10029000E02D80818F7D80830895EF92FF920F93F0
:1002A0001F93CF93DF93EC0181E0888F9B8D8C8D22
:1002B00098131AC0E889F989808185FF15C09FB716
:1002C000F894EE89FF896083E889F98980818370D9
:1002D000806480839FBF81E090E0DF91CF911F9188
:1002E0000F91FF90EF900895F62E0B8D10E00F5FA9
:1002F0001F4F0F731127E02E8C8D8E110CC00FB67F
:1003000007FCFACFE889F989808185FFF5CFCE0116
:100310000E942B01F1CFEB8DEC0FFD2FF11DE35A65
:10032000FF4FF0829FB7F8940B8FEA89FB89808199
:100330008062CFCFCF93DF93EC01888D8823B9F013
:10034000AA89BB89E889F9898C9185FD03C08081E0
:1003500086FD0DC00FB607FCF7CF8C9185FFF2CF5D
:10036000808185FFEDCFCE010E942B01E9CFDF9187
:10037000CF91089590E0FC01E859FF4F2491FC01D2
:10038000EE54FF4F3491FC01E256FF4FE491EE230F
:10039000C9F0222339F0233001F1A8F4213019F1FA
:1003A000223029F1F0E0EE0FFF1FE657FF4FA59135
:1003B000B4918FB7F894EC91611126C030953E232B
:1003C0003C938FBF08952730A9F02830C9F024301E
:1003D00049F7809180008F7D03C0809180008F77E6
:1003E00080938000DFCF84B58F7784BDDBCF84B569
:1003F0008F7DFBCF8091B0008F778093B000D2CFFC
:100400008091B0008F7DF9CF3E2BDACF3FB7F894C3
:100410008091E5019091E601A091E701B091E8019A
:1004200026B5A89B05C02F3F19F00196A11DB11D4F
:100430003FBFBA2FA92F982F8827BC01CD01620F8B
:10044000711D811D911D42E0660F771F881F991F46
:100450004A95D1F70895089590E080E00895AF920D
:10046000BF92CF92DF92EF92FF920F931F93CF93A1
:10047000DF93CDB7DEB760970FB6F894DEBF0FBE3F
:10048000CDBF80E1E0E0F1E0DE01119601900D9238
:100490008A95E1F78FE08AB98FEF8BB970E060E061
:1004A00080E001E010E02BB1D801062E01C0AA0FB8
:1004B0000A94EAF79A2F909592239BB9E9B1F0E05C
:1004C0005F0134E0B594A7943A95E1F750E040E03D
:1004D000EE24E394F12CEC0EFD1EE60EF71E9501C2
:1004E000042E02C0359527950A94E2F720FD1BC023
:1004F000CA01880F991F880F991F8E0D9F1DFC013F
:1005000080816801042E02C0CC0CDD1C0A94E2F745
:1005100029B130E094E0359527959A95E1F72C21A3
:100520003D21232BA9F34F5F5F4F44305105B9F6AE
:100530009BB1A92BABB96F5F7F4F6430710509F098
:10054000B2CF60960FB6F894DEBF0FBECDBFDF917D
:10055000CF911F910F91FF90EF90DF90CF90BF90C0
:10056000AF9008950E942F028093EE018A3219F411
:1005700081E08093E9010895CF93DF93EC0160E07F
:100580008E810E94BA0161E08E810E94BA0160E012
:100590008E810E94BA018BE891E00197F1F7DF911B
:1005A000CF910895CF92DF92EF92FF920F931F9316
:1005B000CF93DF936C017C0187E0E80EF11CD0E063
:1005C000C0E0062F10E0B8010C2E02C075956795AB
:1005D0000A94E2F76170F70181917F010E94BA01EC
:1005E0002196C430D10579F7C601DF91CF911F91D3
:1005F0000F91FF90EF90DF90CF900C94BC02CF92C0
:10060000DF92EF92FF920F931F93CF93DF93EC0152
:10061000F62E642F8C810E94BA018D818F3F19F0D4
:1006200060E00E94BA010F2D10E08F8584FF25C085
:100630006E0187E0C80ED11CF12CE12CB8010E2C04
:1006400002C0759567950A94E2F76170F601819191
:100650006F010E94BA01FFEFEF1AFF0A88E0E81667
:10066000F10461F7CE01DF91CF911F910F91FF90BF
:10067000EF90DF90CF900C94BC02B80184E07595A8
:1006800067958A95E1F7CE010E94D2026F2DCE01C7
:10069000DF91CF911F910F91FF90EF90DF90CF905E
:1006A0000C94D20240E0682F80E992E00C94FF02A3
:1006B000CF93DF93623028F090919F0298609093DF
:1006C0009F026093A3021092A40290E49093A5026B
:1006D0008093A602805C8093A702809194020E947E
:1006E0008E00809195028F3F11F00E948E008091C4
:1006F00096020E948E00C0E9D2E09E01205932404D
:1007000080919F0284FD0AC084E090E02196281722
:1007100039073CF48E810E948E00EFCF88E090E094
:10072000F5CF8BE39DE00197F1F760E080919402B3
:100730000E94BA0160E0809196020E94BA01809105
:1007400095028F3F19F060E00E94BA0180919F02EC
:1007500084FD39C063E080E992E00E94D202CBE4DC
:10076000D6E4CE010197F1F763E080E992E00E94C0
:10077000D2022197F1F763E080E992E00E94D20271
:1007800083E592E00197F1F762E080E992E00E9450
:10079000D20280919F0280620E94520384E0809383
:1007A000A0028CE00E94520381E00E9452038BE37E
:1007B0009FE10197F1F782E08093A10286E0DF914B
:1007C000CF910C94520380620E9452038BE496E412
:1007D0000197F1F780919F0280620E94520383E5A6
:1007E00092E00197F1F780919F0280620E9452038C
:1007F000D0CF41E00E94FF0281E090E00895FB012C
:1008000001900020E9F73197AF01461B570BDC013F
:10081000ED91FC910280F381E02D09944F925F925B
:100820006F927F92AF92BF92CF92DF92EF92FF9240
:100830000F931F93CF93DF93CDB7DEB7A1970FB67A
:10084000F894DEBF0FBECDBF5C016A017B01F7FEED
:1008500047C0DC01ED91FC910190F081E02D6DE24B
:1008600009958C0122273327A9012C193D094E092E
:100870005F0919A2FE01B1967F019AE0492E512C21
:10088000612C712CCA01B901A30192010E94C50813
:10089000605DD7016E937D0121153105410551053C
:1008A00089F790E080E0109721F0BD01C5010E941A
:1008B000FF03800F911FA1960FB6F894DEBF0FBE05
:1008C000CDBFDF91CF911F910F91FF90EF90DF90FF
:1008D000CF90BF90AF907F906F905F904F900895B2
:1008E000AB01960119A28E010F5D1F4F8AE0C82E41
:1008F000D12CE12CF12CCA01B901A70196010E946B
:10090000C508605DF80162938F012115310541052D
:10091000510589F790E080E0309769F2BF01C50189
:100920000E94FF03C8CFCF93DF93AC01990F660BF2
:10093000770B83EF91E00E940E04EC016EE271E010
:1009400083EF91E00E94FF038C0F9D1FDF91CF91F9
:1009500008958F929F92AF92BF92CF92DF92EF92C3
:10096000FF920F931F93CF93DF93CDB7DEB76197BD
:100970000FB6F894DEBF0FBECDBFB82E6A017B0163
:1009800081E1E1E3F1E0DE01119601900D928A959B
:10099000E1F79A01AB0101E010E08AE0882E912C8A
:1009A0009AE0A92E2A3031054105510594F09401B1
:1009B000092C000C440B550BB601C7010E94E70837
:1009C000C401A89E4001A99E900C11240F5F1F4FE7
:1009D000E9CFE091A302E23070F5E150F0E0E0579A
:1009E000FD4F84898B0D80680E945203025F1F4F68
:1009F00061E070E06C0F7D1F600F711F80E992E075
:100A00000E94FF03A601B70180E992E00E940E0454
:100A100061960FB6F894DEBF0FBECDBFDF91CF91C8
:100A20001F910F91FF90EF90DF90CF90BF90AF900C
:100A30009F908F900895E1E0D1CFCF93DF93EB01AA
:100A40009091A302891710F08FEF890FE82FF0E043
:100A5000E057FD4F848980680E945203BE0180E9FF
:100A600092E0DF91CF910C94FF03CF9362E471E0A9
:100A700090E080E00E941D056FE871E081E090E069
:100A80000E941D051092EB011092EA01CAE08091CC
:100A9000E901811136C00E942F028093EE0190ED92
:100AA000980F9A3008F52091EA012F5F2093EA0110
:100AB000082E000C990BC0972230C9F42091DC015C
:100AC0003091DD01820F931F9093DD018093DC0153
:100AD0004091DC015091DD01052E000C660B770B77
:100AE00087E090E00E94A9040E94B202D0CFC89F84
:100AF0009001C99F300D11243093DD012093DC015A
:100B0000E7CF1092E9012091DC013091DD01809165
:100B1000EF019091F0012817390729F481E08093C3
:100B2000ED01CF91089562E571E081E090E00E94CF
:100B30001D052FEF87EA91E6215080409040E1F7B4
:100B400000C00000EECF0F931F93CF93DF938C0173
:100B5000EB010E94BD088883C80101960E94BD0870
:100B60008983CE01DF91CF911F910F9108951F923C
:100B70000F920FB60F9211242F933F934F935F93D1
:100B80006F937F938F939F93AF93BF93EF93FF9355
:100B900083EF91E00E942B01FF91EF91BF91AF9104
:100BA0009F918F917F916F915F914F913F912F9185
:100BB0000F900FBE0F901F9018951F920F920FB6B7
:100BC0000F9211242F938F939F93EF93FF93E091B4
:100BD0000302F09104028081E0910902F0910A027F
:100BE00082FD1BC0908180910C028F5F8F732091DA
:100BF0000D02821741F0E0910C02F0E0ED50FE4F43
:100C0000958F80930C02FF91EF919F918F912F917F
:100C10000F900FBE0F901F9018958081F4CF1F92F8
:100C20000F920FB60F9211242F933F938F939F93A0
:100C3000AF93BF938091E1019091E201A091E30114
:100C4000B091E4013091E00123E0230F2D3758F5F6
:100C50000196A11DB11D2093E0018093E1019093C5
:100C6000E201A093E301B093E4018091E50190914A
:100C7000E601A091E701B091E8010196A11DB11D27
:100C80008093E5019093E601A093E701B093E8011A
:100C9000BF91AF919F918F913F912F910F900FBE78
:100CA0000F901F90189526E8230F0296A11DB11DE5
:100CB000D2CFE3EFF1E01382128288EE93E0A0E05E
:100CC000B0E084839583A683B78384E191E0918328
:100CD000808385EC90E09587848784EC90E097870B
:100CE000868780EC90E0918B808B81EC90E0938BF9
:100CF000828B82EC90E0958B848B86EC90E0978BD6
:100D0000868B118E128E138E148EE0E9F2E0138220
:100D1000128286E291E0918380838EE084838FEF5C
:100D200085838FE0868380E1878381E1808782E10C
:100D3000818783E182871386148615861686178637
:100D400061E080E10C945803CF93DF9300D0CDB7DE
:100D5000DEB7789484B5826084BD84B5816084BD3B
:100D600085B5826085BD85B5816085BD80916E0049
:100D7000816080936E00109281008091810082607A
:100D800080938100809181008160809381008091B7
:100D900080008160809380008091B10084608093A6
:100DA000B1008091B00081608093B00080917A00A2
:100DB000846080937A0080917A00826080937A00C8
:100DC00080917A00816080937A0080917A008068B7
:100DD00080937A001092C100E0910302F091040226
:100DE00082E08083E091FF01F09100021082E091A7
:100DF0000102F09102028FEC808310920B02E091CD
:100E00000702F091080286E08083E0910502F091EC
:100E10000602808180618083E0910502F0910602E4
:100E2000808188608083E0910502F09106028081D4
:100E300080688083E0910502F091060280818F7DB9
:100E400080838FEF84B962E080E10E94580362E6FC
:100E500071E090E080E00E941D056BE671E081E0AA
:100E600090E00E941D056FEE71E090E080E00E942E
:100E7000A30561EF71E084E090E00E94A3056BE7B9
:100E800071E083EF91E00E94FF034091EF015091E8
:100E9000F001052E000C660B770B83EF91E00E94AA
:100EA0000E048091F1019091F2010E94930448E0B8
:100EB000942E8E010F5F1F4F50E0A52E50E0B52EEF
:100EC0008824839428E2322E3AE0232E0E942F02B7
:100ED0008093EE01882309F4EEC0833409F06DC0DD
:100EE0008091ED01811103C00E943505F9CF61E9C0
:100EF00071E090E080E00E941D0560EA71E081E011
:100F000090E00E941D051092EB011092EA01809181
:100F1000E901811138C00E942F028093EE0190ED0B
:100F2000980F9A3008F52091EA012F5F2093EA018B
:100F3000082E000C990BC0972230D9F42091EF01B4
:100F40003091F001820F931F9093F0018093EF0195
:100F50004091EF015091F001052E000C660B770BCC
:100F600088E090E00E94A9040E94B2021092ED0174
:100F7000CECF289E9001299E300D11243093F00190
:100F80002093EF01E5CF1092E90169EA71E090E06A
:100F900080E00E941D056FE871E081E090E00E9412
:100FA0001D054091EF015091F001052E000C660BDC
:100FB000770B87E090E00E94A9048091EE018134D4
:100FC00009F05FC08091ED01811103C00E943505D9
:100FD000F9CF1092ED0162E671E090E080E00E94AE
:100FE0001D0569EB71E081E090E00E941D0595B858
:100FF0000E942F02F82E0E942F028093EE0122E41D
:10100000F21202C08334E9F10E942F028093EE01B4
:10101000833211F48092EC018091EC01813041F730
:1010200030E235B962E671E090E080E00E941D0593
:1010300063EC71E081E090E00E941D058FEF97EA7C
:10104000E1E681509040E040E1F700C000002A9ABC
:101050008091ED01811103C00E943505F9CF1092F6
:10106000ED011092EC0195B862E671E090E080E04D
:101070000E941D0569EB71E081E090E00E941D0572
:10108000B7CF8091EE018234B1F48091ED018111EE
:1010900003C00E943505F9CF63E671E090E080E07F
:1010A0000E941D056FEC71E081E090E00E941D053B
:1010B00035B81092ED019CE7E92E90E0F92EF7018A
:1010C0006491662349F083EF91E00E944D01FFEFA8
:1010D000EF1AFF0A892B99F78091A8029091A90233
:1010E000009711F48CEA92E09801281B390BC90192
:1010F0000E9493044091EF015091F001052E000CE5
:10110000660B770B83EF91E00E940E048091F10152
:101110009091F2010E9493040E9406022B013C016F
:1011200088E8C82E83E1D82EE12CF12C0E9406021B
:101130006419750986099709683E73408105910510
:10114000A8F331E0C31AD108E108F10888EE480E8F
:1011500083E0581E611C711CC114D104E104F10428
:1011600029F7A114B10409F4B1CE0E941701882314
:1011700009F4A8CE0E940000A5CEF999FECF92BD39
:1011800081BDF89A992780B50895A1E21A2EAA1B6D
:10119000BB1BFD010DC0AA1FBB1FEE1FFF1FA21727
:1011A000B307E407F50720F0A21BB30BE40BF50B24
:1011B000661F771F881F991F1A9469F760957095AD
:1011C000809590959B01AC01BD01CF010895052E3E
:1011D00097FB1EF400940E94FE0857FD07D00E9462
:1011E000C50807FC03D04EF40C94FE0850954095BA
:1011F000309521953F4F4F4F5F4F089590958095C3
:10120000709561957F4F8F4F9F4F0895EE0FFF1F91
:101210000590F491E02D0994F894FFCF31323341D9
:1012200034353642373839432A3023440000000031
:101230004D01AD00DA009A010B01E900FD0000004C
:101240000000F903AD002C022B020D0A00303030F3
:101250003030303030303030303030303000444991
:101260004749544520412053454E484120005345AD
:101270004E484120494E56414C49444120002041AE
:101280004C41524D45200020446566696E697220CC
:1012900053656E686120004F2076616C6F72206428
:1012A000612073656E68612065203A2000444546E0
:1012B000494E49522053454E484120004449474930
:1012C00054453A200053454E484120444546494E36
:1012D0004944412000204154495641444F200020B8
:1012E00044495350415241444F20004445534154D6
:0812F000495641444F20000063
:107E0000112484B714BE81FFF0D085E080938100F7
:107E100082E08093C00088E18093C10086E0809377
:107E2000C20080E18093C4008EE0C9D0259A86E02C
:107E300020E33CEF91E0309385002093840096BBD3
:107E4000B09BFECF1D9AA8958150A9F7CC24DD24C4
:107E500088248394B5E0AB2EA1E19A2EF3E0BF2EE7
:107E6000A2D0813461F49FD0082FAFD0023811F036
:107E7000013811F484E001C083E08DD089C08234E0
:107E800011F484E103C0853419F485E0A6D080C0E4
:107E9000853579F488D0E82EFF2485D0082F10E0AE
:107EA000102F00270E291F29000F111F8ED06801E7
:107EB0006FC0863521F484E090D080E0DECF843638
:107EC00009F040C070D06FD0082F6DD080E0C81688
:107ED00080E7D80618F4F601B7BEE895C0E0D1E017
:107EE00062D089930C17E1F7F0E0CF16F0E7DF06D8
:107EF00018F0F601B7BEE89568D007B600FCFDCFD4
:107F0000A601A0E0B1E02C9130E011968C91119780
:107F100090E0982F8827822B932B1296FA010C0160
:107F200087BEE89511244E5F5F4FF1E0A038BF0790
:107F300051F7F601A7BEE89507B600FCFDCF97BE46
:107F4000E89526C08437B1F42ED02DD0F82E2BD052
:107F50003CD0F601EF2C8F010F5F1F4F84911BD097
:107F6000EA94F801C1F70894C11CD11CFA94CF0C13
:107F7000D11C0EC0853739F428D08EE10CD085E9AC
:107F80000AD08FE07ACF813511F488E018D01DD067
:107F900080E101D065CF982F8091C00085FFFCCF94
:107FA0009093C60008958091C00087FFFCCF809118
:107FB000C00084FD01C0A8958091C6000895E0E648
:107FC000F0E098E1908380830895EDDF803219F02E
:107FD00088E0F5DFFFCF84E1DECF1F93182FE3DFCA
:107FE0001150E9F7F2DF1F91089580E0E8DFEE27F6
:047FF000FF270994CA
:027FFE00040479
:00000001FF
